:020000040800F2
:10000000E00A0020AD020008D323000851180008C0
:10001000D12300084D180008CD280008000000007A
:10002000000000000000000000000000CD240008D7
:100030004F18000800000000F9230008CF24000832
:10004000C7020008C7020008C7020008C70200086C
:10005000C7020008C7020008C7020008C70200085C
:10006000C7020008C7020008C7020008C70200084C
:10007000C7020008C7020008C7020008C70200083C
:10008000C7020008C7020008C702000800000000FD
:10009000000000000000000000000000C70200088F
:1000A000C7020008C7020008C7020008C70200080C
:1000B000B1250008C7020008CD250008C7020008C6
:1000C000C7020008C7020008C7020008C7020008EC
:1000D000C702000815270008752700080000000067
:1000E000C7020008C7020008C7020008000000009D
:1000F000000000000000000000000000C70200082F
:1001000000000000C7020008F9250008C702000827
:1001100000000000000000000000000000000000DF
:10012000C7020008C7020008C7020008C70200088B
:10013000C7020008000000000000000000000000EE
:10014000000000000000000000000000C7020008DE
:10015000C7020008C7020008C70200088D27000870
:10016000C7020008C70200080000000000000000ED
:10017000000000000000000000000000000000007F
:1001800000000000C702000800000000000000009E
:10019000C702000800F002F800F078F80AA090E822
:1001A000000C82448344AAF10107DA4501D100F032
:1001B0006DF8AFF2090EBAE80F0013F0010F18BF87
:1001C000FB1A43F001031847604700008047000016
:1001D0000A444FF0000C10F8013B13F0070408BF6D
:1001E00010F8014B1D1108BF10F8015B641E05D00B
:1001F00010F8016B641E01F8016BF9D113F0080FC0
:100200001EBF10F8014BAD1C0C1B09D16D1E58BF51
:1002100001F801CBFAD505E014F8016B01F8016B88
:100220006D1EF9D59142D6D37047000000230024FB
:1002300000250026103A28BF78C1FBD8520728BFF6
:1002400030C148BF0B607047662904F0F68164290D
:1002500000F02081752900F01D81782900F0568179
:10026000632900F01E85732900F023850020704764
:100270001FB504F0D8F900F037FD0400002000217C
:1002800003F032FFE0601FBD10B510BD00F044FE6A
:100290001146FFF7EDFF02F031FD00F062FE03B4FE
:1002A000FFF7F2FF03BC02F093FB00000948804710
:1002B00009480047FEE7FEE7FEE7FEE7FEE7FEE748
:1002C000FEE7FEE7FEE7FEE704480549054A064B60
:1002D00070470000A125000895010008E0040020F7
:1002E000E00A0020E0060020E0060020704753EA04
:1002F000020C00F069802DE9F04B4FF00006002B56
:100300001FBFB3FA83F503FA05F424FA05F65E403D
:1003100012BF1643B2FA82F502FA05F4C5F12005C0
:100320001EBF22FA05FC44EA0C04203556EA044CB0
:100330004FEA144418BF641C4FF000084FF0000946
:10034000904271EB030C39D3002919BFB1FA81F740
:1003500001FA07F6B0FA80F700FA07F6C7F12007AE
:100360001EBF20FA07FC46EA0C062037B6FBF4FC59
:10037000A7EB0507103F07F01F0BCBF120060CFA87
:100380000BFB2CFA06F644BFB3460026202FA4BF71
:100390005E464FF0000B5BEA060C08BF4FF0010B06
:1003A00019EB0B09ABFB027C48EB0608C01B06FBF4
:1003B00002CC0BFB03CC71EB0C01C1E70B460246F0
:1003C00041464846BDE8F08B13B54FF000004FF0B2
:1003D0000001AFF30080BDE81C4070470FB4044932
:1003E00010B503AA029800F069FC10BC5DF814FB7C
:1003F0001000002070B5044685690068C10601D56B
:10040000302600E02026C00707D070BDD4E90121C6
:1004100030469047206A401C20626D1EF6D570BDA4
:1004200070B5044685690078C00707D170BDD4E96E
:10043000012120209047206A401C20626D1EF6D5C5
:1004400070BD70B50C460546012A05D02878800697
:1004500000D5EA69002302E0012305E05B1C93421A
:1004600002D2E05C0028F9D1A869E618C01AA86198
:10047000286A184428622846FFF7BCFF04E0D5E943
:10048000012114F8010B9047B442F8D32846FFF736
:10049000C7FF70BD2DE9F04106460024106875299C
:1004A000314616A510D0AFF30080002802DA404292
:1004B00013A507E031688A0701D512A502E04907B4
:1004C00004D511A5012401E0AFF3008000210A2228
:1004D00006F1240709E0B0FBF2FCB0FBF2F302FBEB
:1004E0001C00303078541846491C0028F3D12346AC
:1004F0002A463046BDE8F04100F061B90000000036
:100500002D0000002B0000002000000070B5044604
:100510000D4621461068AFF300802188090502D5F9
:100520000F4A7A4402E00E4A7A440E32002104F166
:10053000240305E000F00F060009965D5E54491C97
:100540000028F7D120780023000704D5702D02D0B1
:1005500009B1022311322046BDE8704000F02FB9E6
:100560004E4100002DE9F05F894604464FF0000A35
:10057000DFF874B1FB44C0F820A02046E16888474A
:10058000002874D0252806D0D4E901219047206A9C
:10059000401C2062F1E700265F462046E16888475C
:1005A0002028054607DB312D05D2781910F8200CDC
:1005B00008B10643F1E7B00701D526F00406C4F8F8
:1005C0001CA00027C4F818A02A2D09D0284602F044
:1005D000D9F938B304EB8708303DC8F8185019E052
:1005E00059F8041B204604EB87029161E1688847B3
:1005F000012F054618D1E069002820DA26F02006F0
:100600001DE0D8F8180000EB800005EB4000303802
:10061000C8F818002046E1688847054602F0B2F99C
:100620000028EED1012F0AD02E2D08D12046E168F6
:1006300088477F1C0546022F46F02006C4DBA069D0
:10064000002803DA404246F00106A061F00701D01D
:1006500026F010066C2D0BD0682D09D04C2D39D00A
:100660006A2D35D0742D35D07A2D33D016E038E090
:10067000E1682F4620468847B842054609D16C2FCD
:1006800026D04FF48060E16806432046884705463F
:1006900004E06C2F1AD04FF4807006430DB3A5F11F
:1006A0004100192802D8203546F400664A462946FA
:1006B000204626604E46FFF7C7FD80B101280BD0CB
:1006C000F61D26F0070000F1080956E74020E4E790
:1006D0008020D8E70020D6E706F104094DE7284638
:1006E00052E7206ABDE8F09F24410000421E12F844
:1006F000013F002BFBD111F8013B002B02F8013B1D
:10070000F9D1704710B5203AC0F00B80B1E818500D
:10071000203AA0E81850B1E81850A0E81850BFF4EB
:10072000F5AF5FEA027C24BFB1E81850A0E818508A
:1007300044BF18C918C0BDE810405FEA827C24BFDE
:1007400051F8043B40F8043B08BF7047D20728BF6C
:1007500031F8023B48BF11F8012B28BF20F8023BBB
:1007600048BF00F8012B70474FF0000200B5134658
:1007700094469646203922BFA0E80C50A0E80C50C1
:10078000B1F12001BFF4F7AF090728BFA0E80C5072
:1007900048BF0CC05DF804EB890028BF40F8042B6B
:1007A00008BF704748BF20F8022B11F0804F18BFD8
:1007B00000F8012B704770477047704770472DE96C
:1007C000F0470D4699469246044600F12408016818
:1007D000880604D5E06921F01001216000E00120C5
:1007E000A84201DD471B00E00027A1697A1902EB4E
:1007F0000900081AA0612078C00602D42046FFF73D
:10080000F9FD002608E0D4E901211AF80600904716
:10081000206A401C761C20624E45F4DB2078C0061E
:100820000AD52046FFF7E6FD06E0D4E90121302095
:100830009047206A401C2062381EA7F10107F4DCB3
:1008400007E0D4E9012118F805009047206A401C10
:100850002062281EA5F10105F3DC2046FFF7E0FD2C
:100860002078000602D50220BDE8F0870120FBE7D2
:1008700070472DE9FF4F0C461E464FF0FF378BB0F7
:10088000D2E90001DDF860800A908A46C1F30A557A
:1008900005B93D46002108464FF00000BAF1000FAF
:1008A00000F4400005DA00EB80004FF4400101EA5B
:1008B00050004FEA9059B9F1010F00DDB9460A988E
:1008C00050EA4A000ED044F61050A5F2FF354543D9
:1008D0002F14B8F1000F1ED07542291E1EDDC9F17C
:1008E00000021CE0B8F1010F4FF0000001D03021F0
:1008F00003E0F24305E02154401CB042FBDB3046EC
:100900000022002121540B99C1F80880C1E9002080
:100910000FB0BDE8F08FBD1B6D1CDEE74A4600DA64
:10092000694206A800F082FA06AB93E8070003AB21
:1009300083E8070050460A9900F05CFB8DE8070049
:10094000A0F500501F3800900398002D0ADD42F2F8
:100950001F014A460844002303A90390684600F09B
:10096000C5FD09E0A0F500504A461F38002303A941
:100970000390684600F0CFFD8DE807000004000CEE
:1009800003D04FF0FF30410800E01046B8F1000FEF
:1009900003D00022009215461EE0751E05D400F01B
:1009A000A7F9303262556D1EF9D5B34601220843CE
:1009B00002D000227F1C04E02078302801D10022E0
:1009C0007F1E002A099784D01DE0112D07DA00F060
:1009D0008FF9303262556D1C50EA0102F5D108439F
:1009E00002D00098C8B10EE00021681E05E0235C2B
:1009F000625C63542254401E491C8142F7DBAB46C3
:100A0000A81B401E0990002004F80B000B98099ABF
:100A1000C0F80880C0E9002B7AE711264FF00008E3
:100A200057E72DE9F04F88460446D21D22F0070112
:100A300091B0D1E90001CDE90A0101F08BFF024636
:100A40000B98C00F01D02D2007E02068810701D549
:100A50002B2002E0202101EAC000032A099001D0E6
:100A6000072A05DB03464146204600F09FF90BE1CB
:100A70002078800601D5E06900E00620B8F1650F16
:100A8000814606D0B8F1660F18D0B8F1670F70D163
:100A900031E00020B9F1110F009001DB112301E0DA
:100AA00009F101030AAA01A90CA8FFF7E2FEDDE99A
:100AB0000C70002609F10105834647E001204B46F2
:100AC00000904FF000470AAA01A90CA8FFF7D1FE39
:100AD000DDE90DB00C995D46002610B909F1010061
:100AE0000D18B9EB050003D4C0F1FF3609F101057B
:100AF000A5EB09002BE0B9F1010F01DA4FF0010974
:100B00000020B9F1110F0090484601DD112300E0EB
:100B100003460AAA01A90CA8FFF7ABFEDDE90C7099
:100B20004D4600268346207800070AD4AB4500DAFC
:100B30005D4601A8012D04DD411911F8011C302981
:100B400007D04F4502DA17F1040F04DA012082467C
:100B50000FE06D1EEEE7002F02DCED1B3E4403E0CC
:100B6000781CA84200DD7D1CB81B00F1010A4FF083
:100B700000472078000703D4AA4501DB4FF0FF3A75
:100B80000021B7F1004F0DF143088DF8431024D038
:100B900002202B23002F01DA7F422D230A21021E7F
:100BA000A0F1010000DC5FB197FBF1FC97FBF1F2D3
:100BB00001FB1C7C17460CF1300C08F801CDEEE768
:100BC000A8F1010003702188090501D5452100E045
:100BD0006521A0F1010800F8011C09980FA9A1EBFB
:100BE0000807FF1D00B10120411901EBEA70A1695E
:100BF0003844081A401EA0612078C00602D420465E
:100C0000FFF7F8FB099828B1D4E901219047206A41
:100C1000401C20622078C00622D52046FFF7EAFB60
:100C20001EE0002E04DBB34502DD01A8805D00E07C
:100C30003020D4E901219047206A401C2062761CB4
:100C4000AAF101005FEA000A0AD100F04DF8C0687D
:100C50000168405CD4E901219047206A401C206271
:100C6000281EA5F10105DCDC07E0D4E9012118F814
:100C7000010B9047206A401C2062381EA7F1010733
:100C8000F3DC2046FFF7CCFB032011B041E610B5A2
:100C9000436913B1AFF3008001E0FFF7D2FB0120FD
:100CA00010BD127800F124010A7000224A7001225E
:100CB000EDE711684FF0FF32E9E70000074B70B530
:100CC0000D467B4400F05FF80446284600F020F90A
:100CD00010B14FF0FF3070BD204670BDF71E000010
:100CE000004870477C040020004870479C040020A6
:100CF00030B5B0F10A024FEA900E71F100034EEAEE
:100D0000817EB0EB0E0061EB91014FEA101E4EEABE
:100D1000017E10EB0E0041EB11114FEA102E4EEA4E
:100D2000016E10EB0E0041EB11214FEA104E4EEA1E
:100D3000014E10EB0E0041EB1141401841F1000152
:100D40004FEAD00040EA41704FEAD10110EB800534
:100D50004FEA810444EA907444EB01046D1944EBBA
:100D60000404521BA3414FF0000348BF0A3200D5D0
:100D700030BD401C41F1000130BD000001694A1C3A
:100D800002610878704700B58FB0CDE901310021CC
:100D9000059105497944CDE9031011466846FFF7EE
:100DA000E1FB0FB000BD0000E5FFFFFF2DE9F041C2
:100DB0001F46044603260168072A01F4006004DB8D
:100DC00008B116A505E016A503E008B115A500E0D9
:100DD00015A521F010002060A069C01EA0610FB110
:100DE000401EA0612046FFF705FB4FB1D4E9012169
:100DF00038469047206A401C2062C01C206206E0F2
:100E0000206AFAE7D4E9012115F8010B9047761E14
:100E1000F8D22046FFF704FBBDE8F0814E414E00BA
:100E20006E616E00494E4600696E66002DE9F0471E
:100E3000814616468AB0354878440DC88DE80D00C5
:100E400032487844801C03AC0DC884E80D0041F69C
:100E50009B300844372190FBF1F290FBF1F5A5F1AE
:100E6000800501FB12041B3C02D56442012000E016
:100E70000020DFF898A080460027FA44AAF1BE0AB5
:100E80000EE0E0070AD03246684607EB470101232F
:100E90000AEB810100F03FFB8DE8070064107F1C26
:100EA000002CEED1194F7F44AE3F19E0E80715D072
:100EB00007EB04100DF1180A90E80E008AE80E0006
:100EC000C068F04201D1981908903246012306A962
:100ED00003A800F020FB03AB83E807006D10641C3F
:100EE000002DE3D14FF0010332466946B8F1000FFF
:100EF00003A802D000F0FAFA01E000F00CFBC9E907
:100F00000001C9F808200AB0BDE8F087F0380000F9
:100F1000007B00F0800070477546FFF7E1FEAE46AB
:100F200005006946534620F00700854618B020B5F5
:100F3000FFF7CAF9BDE820404FF000064FF0000768
:100F40004FF000084FF0000B21F00701AC46ACE871
:100F5000C009ACE8C009ACE8C009ACE8C0098D46DE
:100F6000704710B50446AFF300802046BDE810403E
:100F7000FFF795B94FF0013C50F8042B51F8043BB2
:100F80009A4221D1A2EB0C03934313EACC1317D15D
:100F900050F8042B51F8043B9A4215D1A2EB0C03F4
:100FA000934313EACC130BD150F8042B51F8043BB4
:100FB0009A4209D1A2EB0C03934313EACC13DBD082
:100FC0004FF00000704700BFD01A01BAB1FA81F1AA
:100FD00001F0180122FA01F0CB40C1F12001DBB28F
:100FE000C0B2C01A2CFA01F3D11A914311EAC3110D
:100FF000E6D170475FEA400C08BF91F0000F4FEA5E
:101000008C234FEAC12243EA51514FEA1C5018BFCA
:1010100000F5F0404FEA300018BF41F000415FEAB0
:101020006C5C00F02980BCF1FF3F08BF40F08040BD
:101030007047130C06BF12044FF0100C4FF0000C59
:10104000130E04BF12020CF1080C130F04BF12019F
:101050000CF1040C930F04BF92000CF1020CD30F9F
:1010600004BF52000CF1010C11464FF00002A0F138
:101070001F00A0EB0C00704711F0004F08BF704735
:1010800031F000413FF4D5AF0B0C06BF09044FF01F
:10109000100C4FF0000C0B0E04BF09020CF1080CF1
:1010A0000B0F04BF09010CF1040C8B0F04BF890066
:1010B0000CF1020CCB0F04BF49000CF1010CCCF178
:1010C0002003A0EB0C0022FA03F302FA0CF241EA2F
:1010D000030100F10100704720F07F4C80EA03001B
:1010E00023F07F47ACEB070303F57C5300F000408F
:1010F00003F1FF032DE980494FEA154B09B44FEA8C
:10110000144325EA0B4E24EA03480FF2042606EBAB
:10111000132749083E785FEA320203FB0667C7F5EA
:10112000000707FB06F64FEA54374FEAD64606F1AA
:10113000020607FB066CCCF1005C4FEA1C472CEA68
:10114000074C07FB06F40CFB06F504EB15464FEACB
:10115000961634BF00204FF000404FEAD13706FB0F
:1011600007FC4FEA1C4C0CFB0BF7D21B03FB0CF7E4
:1011700061EB07010CFB0EF7B0EB074072EB174277
:101180000CFB08F734BFA2EB0742B2EB074261EB5E
:1011900017414FEA0C444FEA910706FB07FC4FEA60
:1011A0001C4C0CFB0BF7B0EBC74072EB573203FB48
:1011B0000CF734BFA2EBC742B2EBC74261EB573129
:1011C0000CFB0EF7B0EBC70072EB57720CFB08F785
:1011D00034BFA2EBC702B2EBC70261EB5771039FAA
:1011E0004FEA816141EA921104EBCC044FEAD13716
:1011F0004FEA826206FB07FC42EA90124FEA8060E7
:101200004FEA1C4C0CFB0BF7D21B03FB0CF761EBFA
:1012100007010CFB0EF7B0EB074072EB17420CFB1B
:1012200008F734BFA2EB0742B2EB074261EB17416C
:101230004FEA8C554FEA910704EB9C2406FB07FC10
:101240004FEA1C4C0CFB0BF7B0EBC74072EB57326C
:1012500003FB0CF734BFA2EBC742B2EBC74261EB12
:1012600057310CFB0EF7B0EBC70072EB57720CFB5B
:1012700008F734BFA2EBC702B2EBC70261EB5771AC
:1012800015EB4C254FEA816141EA92114FEA8262E7
:101290004FEAD13742EA901206FB07FC44F1000402
:1012A0004FEA80604FEA1C4C0CFB0BF7D21B03FB90
:1012B0000CF761EB07010CFB0EF7B0EB074072EB8C
:1012C00017420CFB08F734BFA2EB0742B2EB074210
:1012D00061EB174115EB1C154FEA813141EA924150
:1012E0004FEA823242EA90424FEA80304FEA0C766F
:1012F00044F1000448EA03434EEA0B484FF0000E65
:10130000B2EB080C71EB030724BF624639464EEB83
:101310000E0E4FF0000B0018524149414BEB0B0BE6
:10132000B2EB080C71EB03077BF1000B24BF6246A4
:1013300039464EEB0E0E4FF0000B0018524149415A
:101340004BEB0B0BB2EB080C71EB03077BF1000BC3
:1013500024BF624639464EEB0E0E51EA020718BF13
:1013600046F0010616EB0E7655F1000254F100012D
:1013700003D5BDE88901BDE80088BDE88901BDE865
:101380000048B619524141EB0101A3F10103704736
:1013900080807F7E7D7C7B7A7978777676757473B2
:1013A000727171706F6E6E6D6C6C6B6A6A69686871
:1013B000676666656464636362616160605F5F5E07
:1013C0005E5D5D5C5C5B5B5A5A595958585757567D
:1013D00056555555545453535252525151505050E2
:1013E0004F4F4F4E4E4D4D4D4C4C4C4B4B4B4A4A34
:1013F0004A49494948484847474747464646454578
:1014000045444444444343434342424242414141B0
:10141000002B9C4630D477002BD01CB54FEA370701
:1014200003B44FF010004FF01001BAF1000F06D0D6
:10143000BCF1000FDCBF40F0080040F008014FF0A5
:1014400000000FBCBDE810400BF1010BBBF1010F18
:1014500008BF5FEA170722BF12F1010211F1010173
:101460004FF0004143F1000300F0004043EA000068
:101470007047F9D35708D0E746EA064613F1400F04
:101480004FEA16461FDD13F1200FDFBF16430A4651
:10149000002120335B42BED0C3F1200746EA064656
:1014A00002FA07F74FEA164646EA0706C3F1200795
:1014B00022FA03F201FA07F721FA03F14FF00003D1
:1014C00042EA0702A7E746EA020646EA06464FEA6C
:1014D000164646EA0106BCBF46EA0646360C4FF001
:1014E00000034FF000024FF0000194E72DE9804C1B
:1014F0009A46934670B491E8380007C831EA400C28
:1015000048BF34EA430C03D5FFF7E6FDFFF780FF41
:10151000F0BCBDE8008C2DE9804C9A46934670B42F
:1015200091E8380007C810F0804F08BF13F0804FD3
:1015300003D100F005F8FFF76BFFF0BCBDE8008CAD
:1015400020F07F4780EA030023F07F4C07EB0C0379
:10155000A3F57C5300F00040A3F1FE0392F0000FCE
:1015600000F0B38095F0000F00F077802DE901497D
:101570004FEA11404FEA144621EA004800FB06FCFE
:1015800024EA064708FB06F607FB08F800FB07F706
:1015900018EB06484CEB164C4FEA124B18EB074879
:1015A0004FEA15464CEB174022EA0B4E0BFB06FCAC
:1015B00025EA06470EFB06F607FB0EFE0BFB07F7B8
:1015C0001EEB064E4CEB164C4FF000061EEB074E82
:1015D0004CEB174B18EB0B0840F1000018EB0E0B0F
:1015E00058EB000840F100008F1A4FF000013CBF9B
:1015F000C943661B14BFB5EB040C00213CBFC943B3
:10160000F61B4FEA17444EEA8E0E27EA04454FEACE
:101610001C4704FB07622CEA074C05FB07F70CFB91
:1016200005F604FB0CFC16EB074642EB174216EBE3
:101630000C4642EB1C421BEB060658EB02024141F2
:1016400046EA9E0601D5BDE80189B619524141EB33
:101650000101A3F10103BDE801894FEA14454FEAF6
:10166000114724EA054621EA074C05FB07F406FB6F
:1016700007F70CFB06F105FB0CFC11EB074144EBF3
:1016800017444FEA124711EB0C4144EB1C4422EA89
:10169000074C05FB07F206FB07F70CFB06F605FBFC
:1016A0000CFC16EB074642EB174216EB0C4642EBDE
:1016B0001C456A1854F1000148BF7047B6195241E1
:1016C00041EB0101A3F10103704795F0000F37D002
:1016D0004FEA11424FEA144721EA024624EA074C36
:1016E00002FB07F106FB07F70CFB06F402FB0CFC00
:1016F00014EB074441EB17414FEA154714EB0C4438
:1017000041EB1C4125EA074C02FB07F506FB07F7F6
:101710000CFB06F602FB0CFC16EB074645EB1745E7
:1017200016EB0C4645EB1C42121951F1000148BF63
:101730007047B619524141EB0101A3F10103704713
:101740004FEA14454FEA114724EA054621EA074CBF
:1017500005FB07F106FB07F70CFB06F24FF000064E
:1017600005FB0CFC12EB074241EB174112EB0C425C
:1017700051EB1C4148BF7047921841EB0101A3F1A6
:10178000010370472B4808B5016841F480410160AE
:10179000006800F4804000902648001F016841F076
:1017A00080510160006800F080500090224801687C
:1017B0004FF6FF021140214A41F44071114301608C
:1017C0000068C0F30220C0F10702042A00D90422F5
:1017D000011D072901D2002000E0C01E0121914017
:1017E000491E81400801164981F8140D00F070FE71
:1017F00000F021FB00F082FC00F0F4FC114841688D
:101800005420884700F024FB00F066FD01F0D4FC72
:1018100001F076F80C4801F0BDF801F0D9F94FF06D
:101820008040C16841F00101C160016841F00101DF
:10183000016008BD443802400CED00E00000FA05EC
:101840000FE000E07400002024040020FEE7704751
:10185000FEE70000044908B50A6802430A60096807
:101860000140009108BD000030380240044908B52D
:101870000A6802430A6009680140009108BD00003F
:1018800030380240044908B50A6802430A60096812
:101890000140009108BD000040380240F0B50A68E0
:1018A0000F2692FAA2F2B2FA82F303248AE0012709
:1018B0009F4015EA07027DD04D68012D01D0022D11
:1018C0001BD18D68876892FAA2FCBCFA8CFC4FEAA7
:1018D0004C0C04FA0CFC27EA0C0792FAA2FCBCFAA6
:1018E0008CFC4FEA4C0C05FA0CF52F438760CD6851
:1018F0004768554397432F4347600F69D0F80CC0A2
:1019000092FAA2F5B5FA85F54FEA450E04FA0EF5FE
:101910002CEA050C92FAA2F5B5FA85F56D00AF40F8
:101920004CEA070CC0F80CC04D68022D33D192FA76
:10193000A2F5B5FA85F5082D15D2D1F814C0056ABF
:1019400092FAA2F7B7FA87F7BF0006FA07F7BD4386
:1019500092FAA2F7B7FA87F7BF000CFA07FC45EA3C
:101960000C05056217E0D1F814E0476A150A95FAEC
:10197000A5FCBCFA8CFC4FEA8C0C06FA0CFC95FA20
:10198000A5F5B5FA85F5AD0027EA0C070EFA05FEB8
:1019900047EA0E0747624D68076892FAA2FCBCFA54
:1019A0008CFC4FEA4C0C04FA0CFE27EA0E0792FA64
:1019B000A2F200E005E0B2FA82F2520095402F4315
:1019C00007605B1C0A681546DA407FF470AF0020A0
:1019D000F0BD4FF47A71B0FBF1F14FF0E020491EF9
:1019E00041610021816105210161704710B5044604
:1019F00000F02EFD206000F001FD606000F00CFDA5
:101A0000A060606800F016FDE06010BD014908604C
:101A10007047000014000020F0B502681D4B1E4CFA
:101A20009F031E4D1E4E984207D0B84205D0A042DB
:101A300003D0A84201D0B04205D1D1F804C022F0B1
:101A4000700242EA0C02984210D0B8420ED0A04276
:101A50000CD0A8420AD0B04208D0124CA04205D007
:101A6000114CA04202D0114CA04203D1CC6822F408
:101A70004072224302608A68C2620A888262984287
:101A800001D109690163416941F00101416100200F
:101A9000F0BD0000000001400004004000080040CC
:101AA000000C00400040014000440140004801405B
:101AB000012919D0042919D0102919D0402919D089
:101AC000B1F5807F18D0B1F5806F17D006210C4A90
:101AD0001830525C10440268094BDB1D5B5C04212A
:101AE00099408A43026070470021F0E70121EEE748
:101AF0000221ECE70321EAE70421E8E70521E6E714
:101B00003E460008012919D0042919D0102919D0FE
:101B1000402919D0B1F5807F18D0B1F5806F17D06A
:101B200006210C4A1830525C10440268094BDB1D38
:101B30005B5C082199400A43026070470021F0E78E
:101B40000121EEE70221ECE70321EAE70421E8E7BF
:101B50000521E6E73E460008F0B501250023604C6C
:101B6000012908D0102933D0B1F5807F64D0B1F5B8
:101B7000805F5FD190E0016A21F001010162016A9A
:101B800045688669176826F073063E43176921F099
:101B900002013943576821F001013943A04212D1B3
:101BA000546921F0080141EA8401946821F004019C
:101BB00041EA840125F4807495692C43D56924F4A5
:101BC000007444EA450545608661D26842632FE0AF
:101BD000016A21F010010162016A4568866917688F
:101BE00026F4E64646EA0726176921F0200141EA75
:101BF0000711576821F0100141EA0711A04213D1E3
:101C0000546921F0800141EA8411946821F0400177
:101C100041EA841125F48064956944EA8504D56914
:101C200024F4006444EAC50545608661D268826395
:101C300001621D462846F0BD016A21F480710162EF
:101C4000016A4568C669176826F073063E4317693E
:101C500021F4007141EA0721576821F4807141EABB
:101C60000721A04213D1546921F4006141EA842183
:101C7000946821F4806141EA842125F480549569B7
:101C800044EA0514D56924F4005444EA4515456036
:101C9000C661D268C263CBE7016A21F48051016258
:101CA000056A4168C669176826F4E64646EA0726CB
:101CB000176925F4005545EA0735576825F480551E
:101CC00045EA0735A04204D1946921F4804141EAF4
:101CD00084114160C661D16801640562A9E7000012
:101CE000000001407FB50446C0680D460126C0F3E0
:101CF000403078BBE9686868AA69084329691143DC
:101D00000843E16849F20C6291430843E060A86827
:101D1000216921F44051014321616869616921F41D
:101D20004071014361616846FFF760FE0B488442E1
:101D300007D00B48844201D1029903E0094884424C
:101D400008D1039931B12B6823B100262046AA6936
:101D500000F00AF804B0304670BD000000100140E9
:101D600000440040001401402DE9F04106461920CE
:101D7000A1FB00011F46002364243225B2F5004F69
:101D800027D0BB0FBA00FEF7B2FA0146B0FBF4F061
:101D90006FF01802504301EB800005EB0010B0FB20
:101DA000F4F000F0F002B1FBF4F002EB0012B1FB32
:101DB000F4F06FF01803584301EB800005EB0010BE
:101DC000B0FBF4F000F00F00104480B2B060BDE84A
:101DD000F081FA195B41FEF78AFA0146B0FBF4F094
:101DE0000201B1FBF4F06FF01803584301EB8000DF
:101DF00005EBC000B0FBF4F000F0F80002EB40028D
:101E0000B1FBF4F0584301EB800005EBC000B0FBE0
:101E1000F4F000F00700D7E708B54FF0E0210A69B9
:101E20000092421C00D0401C0A69D20300D5401E1B
:101E30000028F9D108BD10B58020FFF70BFD012067
:101E4000FFF708FDBDE810400220FFF703BD0000CA
:101E500010B586B014216846FEF786FC0120FFF716
:101E600011FD26480068C0F30220C0F107010429D3
:101E700000D90421021D072A01D2002000E0C01E63
:101E800001228A40521E02F0010181401C4A0020BA
:101E9000090182F800144FF0E0224FF08051C2F89F
:101EA000001140F24731ADF800107C21CDE901016D
:101EB0004FF08044039069462046FFF7ADFD20684F
:101EC00020F080002060A06844F207018843A060F1
:101ED000606820F070006060A06820F08000A06062
:101EE000E06820F00100E060206820F00100206040
:101EF000606940F00100606106B010BD0CED00E0CB
:101F00001CE000E0F0B593B014210EA8FEF72CFC05
:101F100020216846FEF728FC182108A8FEF724FCBB
:101F20000220FFF7AFFC5320ADF83800002442F246
:101F30000F70CDE90F403A4D0EA928461194FFF7D6
:101F40006BFD286820F08000286001212846FFF7FB
:101F5000D9FD6020CDE9000440F2DC56CDE902460F
:101F60006A46012128460494FFF7F6FD0121284620
:101F7000FFF79EFD10212846FFF7C4FD40F2D24036
:101F800003906A4610212846FFF7E6FD10212846F7
:101F9000FFF78EFDAF1539462846FFF7B3FD6A46B9
:101FA000394628460396FFF7D7FD39462846FFF7FE
:101FB0007FFDAF1439462846FFF7A4FD6A4639462F
:101FC00028460396FFF7C8FD39462846FFF770FDFF
:101FD000686820F070006860A86820F08000A86041
:101FE0000120FFF743FC0220FFF740FCC0200890CF
:101FF0000225CDE9095408A90A480B94CDE90C45FE
:10200000FFF74CFC03200890CDE9095408A90648C5
:102010000B94CDE90C45FFF741FC13B0F0BD000077
:1020200000040040000002400004024030B595B0BA
:1020300014210EA8FEF798FB20216846FEF794FBBA
:10204000182108A8FEF790FB2948016841F4803167
:1020500001600068002400F4803013905420ADF833
:10206000380042F21070CDE90F40224D0EA92846EB
:102070001194FFF7D1FC286820F080002860A86840
:1020800044F207018843A86001212846FFF73AFD82
:102090006020CDE9000440F2DC50CDE902406A4600
:1020A000012128460494FFF757FD01212846FFF738
:1020B000FFFC10212846FFF725FD6A46102128461F
:1020C000FFF74AFD10212846FFF7F2FC0120FFF739
:1020D000CDFB0C2008900220CDE909040320CDE9B6
:1020E0000C4008A90B940448FFF7D8FB15B030BD8D
:1020F00044380240004001400000024010B58EB05C
:102100001C216846FEF730FB182107A8FEF72CFBC0
:102110002F48016841F010010160006800F01000D4
:102120000D902B481438016841F0010101600068EE
:10213000002400F001000D904FF4C06007900220D1
:1021400008900320CDE909040720CDE90B4007A939
:102150002048FFF7A3FB20480068C0F30220011DC0
:10216000072901D2002000E0C01E04FA00F1080196
:102170001A4981F80004194920202139C1F80001C9
:102180004FF41650CDE900040C200294CDE9034031
:1021900005940694124C69462046FFF7A3FD54F8B7
:1021A000100F20F4904001C4206820F02A0044F869
:1021B0000809206840F40050C4F8000054E8000FFB
:1021C00040F0200044E800010029F7D10EB010BD16
:1021D00044380240000002400CED00E025E000E041
:1021E0000010014030B58FB01C216846FEF7BCFAE4
:1021F000182107A8FEF7B8FA3248016841F4003107
:102200000160006800F400300D902E48103801681D
:1022100041F00101016000680C2500F001000D9003
:102220000220CDE9075003200024CDE9090407204E
:10223000CDE90B4007A92448FFF730FB234800688D
:10224000C0F30220C0F10701042900D90421021DB6
:10225000072A01D2002000E0C01E01228A40521E3F
:1022600002F0010181400801194981F80004184970
:1022700040202239C1F800014FF41650CDE9000486
:102280000294CDE9034505940694124C6946204614
:10229000FFF728FD54F8100F20F4904001C4206887
:1022A00020F02A0044F80809206840F4005020601B
:1022B00054E8000F20F0200044E800010029F7D185
:1022C0000FB030BD40380240000002400CED00E08D
:1022D00026E000E00044004010B58EB01C216846A6
:1022E000FEF742FA182107A8FEF73EFA33480168C4
:1022F00041F020010160006800F020000D902F489F
:102300001438016841F0010101600068002400F008
:1023100001000D904FF4C050079002200890032058
:10232000CDE909040820CDE90B4007A92448FFF7AF
:10233000B5FA24480068C0F30220C0F1070104295F
:1023400000D90421021D072A01D2002000E0C01E8E
:1023500001228A40521E02F00101814008011A49FF
:1023600081F80004184980203F39C1F800014FF47A
:10237000E130CDE900040C200294CDE9034005943E
:102380000694124C69462046FFF7ACFC54F8100F37
:1023900020F4904001C4206820F02A0044F8080985
:1023A000206840F40050206054E8000F40F0200006
:1023B00044E800010029F7D10EB010BD44380240B6
:1023C000000002400CED00E047E000E00014014096
:1023D000FEE7FEE7064940F2DC50486340F2D24295
:1023E0008A63C86348630349486388637047000091
:1023F00000040040004001407047000004490968A3
:10240000044A01F0F0010909515CC840704700001E
:10241000083802404C46000804490968044A01F49F
:10242000E05102EB91210978C8407047083802401A
:102430005C46000804490968044A01F4604102EB63
:1024400051310978C8407047083802405C4600089E
:102450000748006810F00C01064807D0042904D092
:10246000082903D1082000F009B80348704700008C
:10247000083802400024F40040787D0110B5104A6D
:1024800004460020116811F480030E4903D0B3F50F
:10249000800F00D10C49082C11D1106800F03F00CA
:1024A000B1FBF0F01168C1F38811484311680122B3
:1024B00001F4403102EB11414900B0FBF1F010BDD5
:1024C000043802400024F40040787D0170477047D2
:1024D0002D4810B5016821F0070141F002010160AB
:1024E000016801F007010229FAD12848016821F4A6
:1024F000404141F4004101602548016841F48031C8
:1025000001600168C1F340410029FAD02049214A05
:10251000091D0B68204C23401A430A600A6822F404
:1025200040320A60016841F0807101600168C1F3C6
:1025300040610029FAD016480830016821F0F00106
:102540000160016821F4E05141F4805101600168AB
:1025500021F460410160016821F0030141F00201B2
:102560000160016801F00C010829FAD10B4C2046EA
:10257000FFF72FFA2046FFF749FA05488C3001682B
:1025800021F08071016010BD003C024000700040ED
:1025900000380240192A40000080BFFF00BD01053D
:1025A0000248016841F470010160704788ED00E065
:1025B00010B54FF08044206910F0010F04D000F0F6
:1025C00081FD6FF00100206110BD000010B5084CC6
:1025D000206910F0010F09D00648006980470020EB
:1025E00060626420E0626FF00100206110BD0000B5
:1025F0000008004074000020094A106910F0010F23
:102600000DD0084841F288330188491C89B2018005
:10261000994201D9002101806FF0010010617047DB
:10262000000C0040A002002040F6C412094990426C
:1026300002DD9FED090A04E0B0F5FA7F03DA9FEDB1
:10264000070A81ED000A00EE100AB8EEC00A81ED1B
:10265000000A70470800002000401C450000FA43B3
:1026600030B587B00C46054614216846FEF77CF865
:102670002448016841F004010160006800F0040092
:10268000059021480068C0F30222101D072801D2DE
:10269000002200E0D21E002000FA02F31B4A1901BA
:1026A00082F800144FF0E0224FF08041C2F8001190
:1026B000ADF80040CDE90105154C03906946204670
:1026C000FFF7AAF9206820F080002060A06844F29B
:1026D00007018843A060606820F070006060A06817
:1026E00020F08000A060E06840F00100E060206819
:1026F00040F001002060606940F00100606107B0B7
:1027000030BD0000403802400CED00E01EE000E06B
:102710000008004070B5144A1068C0F34010E8B1DA
:102720005068C3B2114801880C0414D44D044FF012
:10273000000404D50A2B0DD141F4004112E00D2B09
:102740000ED0C1F30D050A4E491C89B273550180A4
:10275000C72900D904806FF020001060506870BD58
:1027600041F480410180F6E7001001400C00002098
:10277000E002002004480168C1F34011002902D0A2
:102780006FF020010160704700440040F0B54C4DEF
:102790002868DFF830E1C0F34010002200286FD035
:1027A000686849490124C0B20E78022E02D0032E77
:1027B00038D02EE091F802C0BCF1000F0ED14628AF
:1027C00013D0414F4B780837052B05D278280FD00E
:1027D000F8545B1C4B7001E0782809D04B78042B2F
:1027E0000AD90A704A708A7053E00A704A705DE034
:1027F000FA548C704A700CE0BCF1010F09D17828B2
:1028000007D0314F0D37F8545B1CDBB24B704628B4
:1028100002D0012E25D02BE0F81800F8012C4C60D6
:102820000A7041E0284E4B781236F0545B1CDBB244
:102830004B70042B06D9C1F812208A750A704A70B1
:10284000CC7026E0462824D1012B03D0F01800F8E4
:10285000012CCAE70A704A70C1F812208A75CC7040
:1028600024E04D2808D05A2808D004230B704A7061
:102870000B78042B05D00CE00223F7E70323F5E7E0
:1028800017E0114E1736462806D04B78F0545B1CE3
:102890004B70432807D009E0487832540A704A70D8
:1028A000CEF8004002E00C704A708A706FF0200091
:1028B0002860686810F0FF0F01D1CEF80020F0BD4D
:1028C0000014014000000020A4020020FEE7416047
:1028D0000168C1F3C0110029FAD0704710B50B464A
:1028E000044600222046995CFFF7F1FF521C985CD9
:1028F0000028F7D12068C0F380100028FAD010BD5E
:1029000010B54FF4FA50FFF787FA4FF47A74204667
:10291000FFF782FA04A10E48FFF7E0FF2046BDE86A
:102920001040FFF779BA000041542B4349505354EB
:102930004152543D22544350222C223139322E31FF
:1029400036382E342E31222C383030300D0A00002B
:102950000014014003B401984100009850EAC120DE
:1029600018BF04204A0D18BF40F0010040F2FF726A
:10297000B2EB515F08BF40F00200012808BF0520FC
:1029800002B0704730380A2801D201207047002079
:10299000704700009FED0B0A80ED000A9FED0A0AC8
:1029A00080ED010A80ED020A9FED080A80ED030A1E
:1029B00080ED040A80ED050A80ED060A80ED070A25
:1029C00070470000EC51383D0AD7A33C00000000DE
:1029D0007047000008B5B6EE000AD0ED001ADFED32
:1029E000210AB0EE401A1E4901EEA01A0A68BDEE97
:1029F000C11A11EE102AB0EE401AA2F2DC52524275
:102A00000A60D0ED011A4A6801EEA01ABDEEC11AA3
:102A100011EE102AB0EE401AA2F2D24252424A609F
:102A2000D0ED021A8A6801EEA01ABDEEC11A11EEAD
:102A3000102A02F2DC528A6090ED031ACA6801EE95
:102A4000200ABDEEC00A10EE100A00F2DC50C86089
:102A500000900EC904A0FDF7C1FC014808BD0000AC
:102A600054040020CDCCEC4025642C25642C256436
:102A70002C25640D0A000000B6EE000AD0ED031A02
:102A8000DFED2F0AB0EE401A2C4901EEA01A0A68B9
:102A9000BDEEC11A11EE102AB0EE401AA2F2DC52BD
:102AA00052420A60D0ED001A4A6801EEA01ABDEE4B
:102AB000C11A11EE102AB2EE041AA2F2D242524208
:102AC0004A60D0ED011A8A6871EEC11AB0EE401A60
:102AD00001EEA01ABDEEC11A11EE102AB1EE041AD1
:102AE00002F2DC528A60D0ED021ACA6831EE812A05
:102AF000F0EE401A42EE201AFDEEE11A11EE902A95
:102B000002F2DC52CA60D0ED041A0A6931EE811A71
:102B100001EE200ABDEEC00A10EE102A02F2DC52CD
:102B20000A61C06A074A904202DB4FF4FA7001E082
:102B300040F2DC504861012070470000640400202E
:102B4000CDCCEC400000B442F0B593B00546342142
:102B50006846FDF709FE134B0DAF13A60FCB87E8B0
:102B60000F0000240A2255F8240011A900F078F87B
:102B700057F824106846FDF7B9FD11A96846FDF71E
:102B8000B5FD641C032CEDDD31466846FDF7AEFD56
:102B900069460848FFF7A2FE694607A0FDF71EFC3C
:102BA00013B0F0BD64460008543130303044313049
:102BB000300D0A00004400402573000003490A68F4
:102BC0005206FCD5C2B24A607047000000100140B6
:102BD0001E489FED1D0ADFED1E0A80ED000A80ED04
:102BE000010A80ED020A80ED030A80ED040A80EDFF
:102BF000050A80ED060A80ED070A80ED080A80EDDF
:102C0000090A80ED0A0A80ED0B0AC0ED0C0ADFED1F
:102C1000110AC0ED0D0ADFED100AC0ED0E0A80EDBD
:102C2000160ADFED0E0A80ED170AC0ED180A80EDD6
:102C3000190A80ED1A0AC0ED1B0A80ED1C0A80ED0E
:102C40001D0AC0ED1E0A704700000000A803002006
:102C50001904D63D5EBAC93D4C37893E4013C13E8A
:102C600070B58AB016460D460446282219A168465A
:102C7000FDF748FD00200A2E05D1002C03DA2D2097
:102C80006442287001206946B4FBF6F206FB12424A
:102C9000B4FBF6F48A5C2A54401C002CF4D10021C9
:102CA000295429782D2905D00022411E01EBD1712C
:102CB000831809E00122F8E7981A2844AC5C10F860
:102CC000016DAE540470521CB2EB610FF4DD0AB01A
:102CD000284670BD303132333435363738394142C9
:102CE000434445464748494A4B4C4D4E4F5051523C
:102CF000535455565758595A00000000FEF742FDEC
:102D0000FFF768FB4FF49670FFF786F84FF4FA7000
:102D1000FFF782F8FEE7000070B504462DED048B46
:102D20009FED779AD0ED060A90ED000A754D30EED2
:102D3000C01A11EE100A9FED748BA84208DB10EE4A
:102D4000100A01F0FFFB53EC182B01F015FA0DE00F
:102D500070EE600A10EE900AA84210DB10EE100A26
:102D600001F0F0FB53EC182B01F002FB01F0D2F95B
:102D7000206051EC180B01F0CDF909EE100AD4EDEA
:102D8000070A94ED010A30EEC01A11EE100AA842AB
:102D900008DB10EE100A01F0D5FB53EC182B01F004
:102DA000EBF90DE070EE600A10EE900AA84216DB17
:102DB00010EE100A01F0C6FB53EC182B01F0D8FA04
:102DC00001F0A8F9606019EE100A01F0BBFB53ECAA
:102DD000182B01F0D1F901F09DF909EE100A94EDDC
:102DE000081A94ED020A71EE400A10EE900AA84209
:102DF00006DBB5EEC09AF1EE10FA01D19FED449AD0
:102E000010EE900AA84202DB30EE090A07E070EEED
:102E1000410A10EE900AA84203DB30EE490A84ED25
:102E2000020AD4ED090A94ED030A30EEC01A11EE3D
:102E3000100AA84208DB10EE100A01F083FB53ECE5
:102E4000182B01F099F90DE070EE600A10EE900A6F
:102E5000A8420ADB10EE100A01F074FB53EC182BA9
:102E600001F086FA01F056F9E060D4ED0A0A94ED1B
:102E7000040A30EEC01A11EE100AA84208DB10EE68
:102E8000100A01F05FFB53EC182B01F075F90DE00F
:102E900070EE600A10EE900AA8420ADB10EE100AEB
:102EA00001F050FB53EC182B01F062FA01F032F9FB
:102EB0002061D4ED0B0A94ED050A30EEC01A11EE34
:102EC000100AA84208DB10EE100A01F03BFB53EC9D
:102ED000182B01F051F90DE070EE600A10EE900A27
:102EE000A8420ADB10EE100A01F02CFB53EC182B61
:102EF00001F03EFA01F00EF96061BDEC048B70BD8B
:102F000000000000CDCC4C3D9A9999999999D93FF0
:102F1000CDCCCC3E0068704700EE101ADFED131ADE
:102F200010B5F8EEC00A9DED031A029C012880EE50
:102F3000A10A00EE903AB8EEE02AC2EE210AB8EEFD
:102F4000C12A82EE211A01D1B1EE400A012A01D133
:102F5000F1EE600A012C01D1B1EE411A0448054995
:102F600080EC030A0120086010BD00000000C84288
:102F700018040020C002002000EE100A1248B8EE2B
:102F8000C00ADDEC020A80ED090A00EE101AC1F158
:102F90005A01891AB8EEC00A80ED060A00EE102A1E
:102FA000B8EEC00A80ED070A00EE101AB8EEC00AAB
:102FB00080ED080AB8EEE00A80ED0A0AB8EEC10A10
:102FC00080ED0B0A70470000A80300202DE9F04FA8
:102FD00087B01D46DDE912B6DDE910A790468146AF
:102FE0000C463B462A4629A00096FDF7F7F9B9F1B1
:102FF000000F00D06442B8F1000F00D06D42BAF16A
:10300000000F00D07F42BBF1000F00D0764200EEEF
:10301000104A224C22A0B8EEC00A84ED000A00EE4D
:10302000105AB8EEC00A84ED010A00EE107AB8EE2C
:10303000C00A84ED020A00EE106AB8EEC00A84ED00
:10304000030AFDF7CBF9E06801F07CFA81468A4675
:10305000A06801F077FA07468846606801F072FAC6
:1030600005460E46206801F06DFA8DE8E00741EC58
:10307000100B10A053EC102BFDF7B0F92046FFF712
:10308000A9FC07B0BDE8F04FFFF75EBD25642C2515
:10309000642C25642C25640D0A00000044040020E3
:1030A0000D0A2E2E2E2E2E2E2E2E2E2E2E2E2E2E85
:1030B0002E0D0A0025662C25662C25662C25660D0E
:1030C0000A0000002DE9F04F8BB02548FFF724FEE1
:1030D0002348FFF7D1FC2248406901F033FA064645
:1030E0001F480F46006901F02DFA04461C480D46A2
:1030F000806801F027FACDE900011948406801F025
:1031000021FA824616488B46006801F01BFA804679
:1031100013488946C06801F015FA41EC100B06A867
:1031200053EC102B80E8F000DDE90001CDE904014B
:103130008DE8000F0BA0FDF751F90F480F49026809
:103140004A6342688A638268CA63C2680A640C4937
:1031500002694A63406988630BB0BDE8F08F0000E4
:10316000A803002025662C25662C25662C25662CB8
:1031700025662C25660D0A0064040020000400402A
:10318000004001400A4A01280CD0022808D0032838
:103190000AD004280AD0074A052803D0062800D1FF
:1031A0009163704751637047D163704711647047F2
:1031B000000400400040014010B5FEF7A3FEFEF7FA
:1031C00035FF1148016A41F001010162016A41F0D5
:1031D00010010162016A41F480710162016A41F4E7
:1031E0008051016209490A6A42F001020A620A6AD0
:1031F00042F010020A62026842F0010202600868AE
:1032000040F00100086010BD000400400040014093
:1032100070B596B0054614AB01AA03A900F0DCF91D
:10322000002824D18DF84C001D4C042615E000BF69
:10323000216806EBC00014AB08586A460BA900F0E1
:10324000CBF9002813D103A90BA800F0F4FB80B13F
:103250009DF84C00401C8DF84C00217DC0B281428D
:10326000E6D8207D9DF84C1088420ED1042016B07F
:1032700070BD9DF800009DF80410884201D902201D
:10328000F5E79DF84C00A075EBE713A9284600F080
:103290005BFA0028EBD19DF84C0060750020E6E752
:1032A000740000202DE9F041804C9AB0A57D207D6E
:1032B000A8427DD90421206801EBC50119AB405813
:1032C00010AA11A900F088F911A979A0FDF786F8D4
:1032D00000270DF1180833E0208B0121B940084286
:1032E00017D0222174A0FDF779F8384600F098FA3B
:1032F000011972A02431FDF771F822216EA0FDF7AB
:103300006DF8384600F08CFA2044243048F8270045
:103310000CE0384600F084FA2044416A48F827104F
:10332000E07D012820D066A0FDF758F89DF8400008
:10333000401E874202D064A0FDF750F87F1CFFB208
:103340009DF840008742C7D360A0FDF747F800F022
:10335000B3FA607D0B2814D2DFE800F0080D313895
:103360004048525E6B78880059A0DDE7206850F82D
:103370003500804704E0206850F8351006988847EB
:10338000064600F05FFA9DF8640001287DD051A048
:10339000FDF724F894F8240200280DD0D4F8281260
:1033A0000A20B1FBF0F200FB1212B1FBF0F100E0D9
:1033B00002E049A0FDF712F81AB0BDE8F0812068DC
:1033C00050F83520DDE906019047D9E7206806AEC0
:1033D00050F8353096E807009847D1E7206806AEE8
:1033E00050F8355096E80F00A847C9E70A980090B2
:1033F000206806AE50F8355096E80F00A847BFE7A2
:10340000DDE90A01CDE90001206806AE50F835502B
:1034100096E80F00A847B3E70AAB06AE93E80700AB
:103420008DE80700206850F8355096E80F00A8474F
:10343000A6E70AAE96E80F008DE80F00206806AEFA
:1034400050F8355096E80F00A84799E70BAE96E87C
:103450000F0001AE86E80F000A980090206806AEC3
:1034600050F8355096E80F00A84789E70CAE96E86B
:103470000F0002AE86E80F00DDE90A01CDE9000188
:10348000206806AE50F8355000E003E096E80F00E3
:10349000A84775E7E07D3146012804D016A000BF9B
:1034A000FCF79CFF76E717A0FAE700007400002005
:1034B0000D0A257328000000256300002573000015
:1034C00030582558000000002C00000029000000A2
:1034D000256C75003B0D0A0046756E6374696F6E4E
:1034E0002052756E2054696D653A25642E2531642D
:1034F0006D730D0A000000003D305825583B0D0A41
:10350000000000003D256C753B0D0A00F0B5044637
:10351000002007460646054623782C2B03D0292B8E
:1035200004D01BB103E015B9012700E065B31EB15B
:10353000222B27D047BB2BE0A3F1300CBCF1090FA5
:1035400015D9A3F1610CBCF1050F10D9A3F1410C01
:10355000BCF1050F0BD9582B09D0782B07D0222BA3
:103560000CD0202B1DD02C2B1BD0FF260CE05FB9DC
:10357000612B00D3203B01F8013B12E027B9012663
:1035800035460EE0002567B100230B701670F0BDC4
:103590003DB15C2B02D1401CC0B2641C237801F801
:1035A000013B401CC0B2641CB6E730B50025157065
:1035B0000AE001F8014B1478401C641CE4B214705A
:1035C0009C4201D3012030BD0478202C01D0002C76
:1035D000EFD10D70002030BD2DE9FF4F002582B0E6
:1035E000984604462F462E464FF0010BAA462A461F
:1035F000A94615E0202910D002F07F03052B0CD23C
:1036000002B9802202F07F03042B01D12A290AD1BA
:10361000521C0DF80310D2B201E0852A04D0401CE0
:1036200001780029E6D162B102F07F0244A10DF8D1
:103630000290684600F0FFF938B1012188F80010C7
:1036400000224FF00008234614E088F80090F7E7C6
:1036500008F1010000F0FF0813F8010F202801D045
:103660002A2807D1184600F08BF9282802D02A28EA
:1036700000D047461878282801D00028E8D10FB19B
:103680003C44641C00273946207888B1282804D09F
:10369000292806D022280FD010E079B96D1CEDB290
:1036A0000CE059B925B16D1E15F0FF0501D00CE0F5
:1036B0000127012E32D039E049B100214DB12C282B
:1036C0000FD020281FD028281DD07AB117E0012163
:1036D000F4E7202820D0039B18700398401C039027
:1036E0001AE0521C4FF0010BD2B20CE0BAF1050FF8
:1036F00005D20DF80A000AF1010000F0FF0A0BF1F3
:10370000010000F0FF0B012D06D1BBF1020F03D128
:10371000761C4FF0030BF6B2641CB5E70DF80A9067
:1037200007A1684600F087F900B9002604980670E2
:10373000039880F8009006B03846BDE8F08F00008E
:10374000766F6964000000002DE9F043002489468B
:10375000324DADF5037D214622466B18491CC9B296
:103760009A760A29F9D302E010F8011F91B1017885
:103770002829F9D1461C012781AA69463046FFF75E
:10378000C5FE06449DF8040248B1012825D0FF2853
:103790003AD10CE001200DF5037DBDE8F0839DF8E2
:1037A000000080B382A9684600F0F2F808B1022058
:1037B000F1E7204600F034F8284482994162288BD2
:1037C00007FA04F188432883042029198876641CA9
:1037D000E4B20A2C18D90320DDE7684600F040F96E
:1037E00000F10108204600F01BF841196846243119
:1037F00000F02DF9288B07FA04F1084329192883D2
:1038000081F81A80E3E7FFE73078292801D0002803
:10381000B2D189F800400020BDE70000740000200C
:10382000024610B500200146054B05E05C18491C16
:10383000A47EC9B22044C0B29142F7D310BD0000AB
:10384000740000200C4908690C4A10F0010F06D0E2
:10385000D2F828024FF6FF731844C2F8280208680D
:1038600010F0600002D1086800F01000D2F82812B1
:103870000844C2F828027047000800407400002085
:1038800000EB4001C1EBC0104FF6FF7110B501EA2B
:10389000C0014FF47A70FEF7E3FE02490120C875BB
:1038A00010BD0000740000200246012000E05043DB
:1038B000491EC9B2FBD2704706486FF00101016191
:1038C000090CC1620021416208460349C1F828027F
:1038D0007047000000080040740000202DE9F0410E
:1038E000164D2888010426D51549C0B2154F00266B
:1038F0000E54B9681248884704000FD0104800F0F1
:10390000B9F8012801D0040014D0012C09D0022CF0
:1039100009D0032C09D0042C0CD108E0F8688047AA
:1039200008E009A004E00BA002E00DA000E00FA059
:10393000FCF754FD2E80BDE8F08100000C00002053
:10394000E002002074000020BAAFCAFDB4EDCEF34F
:10395000210D0A00B2CECAFDB4EDCEF3210D0A004E
:10396000B2CECAFDCCABB6E0210D0A00CEB4D5D2A2
:10397000B5BDC6A5C5E4B5C4BAAFCAFD210D0A00E0
:1039800010F8011F202901D10028F9D1C8B27047D1
:103990002DE9F0410E4600244FF00A08014634603C
:1039A0000A78A2F13003092B0DD9113B052B0AD956
:1039B000582A05D012F0FF0F0DD00120BDE8F0818C
:1039C000012C02D0F9E7412A01D34FF01008641C02
:1039D000E4B2491CE4E70546B8F1100F01D084B108
:1039E00012E0032C01D20220E8E72878302802D127
:1039F0006878582801D00320E0E7A41EE4B2AD1C8B
:103A000001E00420DAE70CB1641EE4B2287807462E
:103A10003038092801D8074600E0373F21464046A4
:103A2000FFF742FF316807FB0010306015F8010F07
:103A30000028E8D1C2E702780B789A4201D0012031
:103A4000704712B1401C491CF5E70020704702780E
:103A50000A700278002A02D0401C491CF7E7704720
:103A6000002102781AB1491CC9B2401CF9E7084686
:103A700070470000F0B58DB004461E236A4602A9C7
:103A8000FFF793FD0190002872D19DF800002718E0
:103A900000263E4C8DF800609DF8000054F8201080
:103AA00002A8FFF7C8FF38B19DF80000401CC0B263
:103AB0008DF800000728EFD39DF800000425344C52
:103AC000072855D2DFE800F00404395A605F5E0031
:103AD00030A0FCF783FC30A0FCF780FC3EA0FCF794
:103AE0007DFC4DA0FCF77AFC5BA0FCF777FC6AA09C
:103AF000FCF774FC78A0FCF771FC85A0FCF76EFC69
:103B00008AA0FCF76BFC8FA0FCF768FC93A0FCF785
:103B100065FC98A0FCF762FC9DA0FCF75FFCA3A0ED
:103B2000FCF75CFCAFA0FCF759FCBCA0FCF756FC12
:103B3000C7A0FCF753FCD3A01BE016A0FCF74EFC7B
:103B4000E0A0FCF74BFC8DF800600BE0216805EB72
:103B5000C0000958EBA0FCF741FC9DF80000401C98
:103B60008DF80000217D9DF800008142EED84EE2E4
:103B70004FE2FCF733FC00200DB0F0BD05A0FCF7D0
:103B80002DFCC3E124E203E2E3E100001800002081
:103B9000740000200D0A00002D2D2D2D2D2D2D2D12
:103BA0002D2D2D2D2D2D2D2D2D2D2D2D2D2D2D2D45
:103BB00055534D4152542056332E312D2D2D2D2D40
:103BC0002D2D2D2D2D2D2D2D2D2D2D2D2D2D2D2D25
:103BD0002D2D2D200D0A00002020202055534D4171
:103BE0005254CAC7D3C9414C49454E54454BBFAA4C
:103BF000B7A2B5C4D2BBB8F6C1E9C7C9B5C4B4AEA3
:103C0000BFDAB5F7CAD4BBA5BDBBD7E9BCFE2CCD86
:103C1000A8B9FD200D0A0000CBFC2CC4E3BFC9D21B
:103C2000D4CDA8B9FDB4AEBFDAD6FACAD6B5F7D3AB
:103C3000C3B3CCD0F2C0EFC3E6B5C4C8CEBACEBAD7
:103C4000AFCAFD2CB2A2D6B4D0D02ED2F2B4CB2CB7
:103C5000C4E3BFC90D0A0000D2D4CBE6D2E2B8FC5F
:103C6000B8C4BAAFCAFDB5C4CAE4C8EBB2CECAFD87
:103C700028D6A7B3D6CAFDD7D62831302F3136BDC6
:103C8000F8D6C629A1A2D7D6B7FBB4AEA1A2BAAFC7
:103C9000CAFDC8EB0D0A0000BFDAB5D8D6B7B5C863
:103CA000D7F7CEAAB2CECAFD292CB5A5B8F6BAAFC1
:103CB000CAFDD7EEB6E0D6A7B3D63130B8F6CAE41F
:103CC000C8EBB2CECAFD2CB2A2D6A7B3D6BAAFCA41
:103CD000FDB7B5200D0A0000BBD8D6B5CFD4CABEFB
:103CE0002ED0C2D4F6B2CECAFDCFD4CABEBDF8D64D
:103CF000C6C9E8D6C3B9A6C4DC2CD0C2D4F6BDF878
:103D0000D6C6D7AABBBBB9A6C4DC2E0D0A000000DC
:103D1000BCBCCAF5D6A7B3D63A7777772E6F706555
:103D20006E6564762E636F6D0D0A000055534D412C
:103D30005254D3D037B8F6CFB5CDB3C3FCC1EE3AA9
:103D40000D0A00003F3A202020202020BBF1C8A10E
:103D5000B0EFD6FAD0C5CFA20D0A000068656C702E
:103D60003A202020BBF1C8A1B0EFD6FAD0C5CFA22F
:103D70000D0A00006C6973743A202020BFC9D3C3B8
:103D8000B5C4BAAFCAFDC1D0B1ED0D0A0A0000003A
:103D900069643A2020202020BFC9D3C3BAAFCAFD2E
:103DA000B5C44944C1D0B1ED0D0A0A006865783A3E
:103DB00020202020B2CECAFD3136BDF8D6C6CFD4E1
:103DC000CABE2CBAF3B8FABFD5B8F12BCAFDD7D604
:103DD000BCB4D6B4D0D0BDF8D6C6D7AABBBB0D0AEA
:103DE0000A0000006465633A20202020B2CECAFD9C
:103DF0003130BDF8D6C6CFD4CABE2CBAF3B8FABF9C
:103E0000D5B8F12BCAFDD7D6BCB4D6B4D0D0BDF846
:103E1000D6C6D7AABBBB0D0A0A00000072756E7425
:103E2000696D653A312CBFAAC6F4BAAFCAFDD4CBCE
:103E3000D0D0BCC6CAB13B302CB9D8B1D5BAAFCA04
:103E4000FDD4CBD0D0BCC6CAB13B0D0A0A000000DD
:103E5000C7EBB0B4D5D5B3CCD0F2B1E0D0B4B8F1A3
:103E6000CABDCAE4C8EBBAAFCAFDC3FBBCB0B2CE90
:103E7000CAFDB2A2D2D4BBD8B3B5BCFCBDE1CAF86E
:103E80002E0D0A002D2D2D2D2D2D2D2D2D2D2D2DD1
:103E90002D2D2D2D2D2D2D2D2D2D2D2D2D2D414C1F
:103EA00049454E54454B2D2D2D2D2D2D2D2D2D2D90
:103EB0002D2D2D2D2D2D2D2D2D2D2D2D2D2D2D203F
:103EC0000D0A00002D2D2D2D2D2D2D2D2D2D2D2DBF
:103ED0002D2D2D2D2D2D2D2D2D2D2D2D2DBAAFCA66
:103EE000FDC7E5B5A52D2D2D2D2D2D2D2D2D2D2DE0
:103EF0002D2D2D2D2D2D2D2D2D2D2D2D2D2D2D2DF2
:103F0000200D0A0025730D0A0000000042A0FCF7F6
:103F100065FA8DF8006016E0216805EBC0000BAB78
:103F200008580AAA02A9FFF757FB9DF8001020685D
:103F300050F8312002A948A0FCF750FA9DF8000083
:103F4000401C8DF80000217D9DF800008142E3D8DF
:103F50005DE0AFF2C030FCF741FA6A4602A938468C
:103F6000FFF7D4FA9DF80000002843D101A902A868
:103F7000FFF70EFD8DF8000010B104283AD102E0E1
:103F80003AA001991BE03CA0FCF728FAE6753EE058
:103F900038A0FCF723FA6A4602A93846FFF7B6FABA
:103FA0009DF8000030BB01A902A8FFF7F1FC8DF8D5
:103FB000000010B104281DD104E034A00199FCF7E1
:103FC0000DFA24E034A0FCF709FA0120E0751EE0A8
:103FD00028A0FCF703FA6A4602A93846FFF796FACA
:103FE0009DF8000030B901A902A8FFF7D1FC8DF8B7
:103FF000000008B10220BFE5019810F0FF0084F82E
:10400000240201D029A000E02FA0FCF7E7F919A0B5
:10401000AFE50120B0E500002D2D2D2D2D2D2D2DEE
:104020002D2D2D2D2D2D2D2D2D2D2D2D2D2D2D2DC0
:104030002DBAAFCAFD204944202D2D2D2D2D2D2D1B
:104040002D2D2D2D2D2D2D2D2D2D2D2D2D2D2D2DA0
:104050002D2D2D2D200D0A002573206964206973F4
:104060003A0D0A3058253038580D0A004845583A5C
:10407000305825580D0A00003136BDF8D6C6B2CEEC
:10408000CAFDCFD4CABE210D0A0000004445433A00
:10409000256C750D0A0000003130BDF8D6C6B2CED1
:1040A000CAFDCFD4CABE210D0A00000052756E2091
:1040B00054696D652043616C63756C6174696F6EE2
:1040C000204F4E0D0A00000052756E2054696D6538
:1040D0002043616C63756C6174696F6E204F464656
:1040E0000D0A00000160704710B500290AD0087859
:1040F000002807D005487844FCF73CFF002801D091
:10410000002010BD0248784410BD00005208000095
:104110004A08000021F00042A2F16052B2F5801F6F
:1041200001F0004328BFD2F17F6C0BD95FEA001C7D
:1041300043EAC20242EB507018BF704728BF20F01C
:1041400001007047B2F5801FBCBF184670474FEAA8
:10415000410C1CF5001F02D2084600F069BA70B588
:1041600000F0B2F800000089FFF7F6BF4FF0004002
:10417000A0F580007047000010B591EA030F48BF1A
:1041800083F0004300F1FC80841A71EB030C05D22C
:10419000121943EB0C03001B61EB0C01DFF824E167
:1041A0004FEA1154A4EB135C1EEA430F18BF9EEABA
:1041B000445F73D023EA0E03DCF1200E21EA0451A0
:1041C00043F4801332D322FA0CFE10EB0E0023FAD4
:1041D0000CFE41EB0E01CCF1200E03FA0EFE10EBAB
:1041E0000E0051F10001B1F5801FCCF1200E32D24A
:1041F00001EB045112FA0EF2BDE8104058BF7047AF
:10420000401C38BF5FEA420218BF7047002814BF45
:1042100020F0010041F100014FEA410313F5001FB6
:1042200038BF7047A1F1C04100F09CB8012A43EBB0
:104230000302ACF1200CDCF11F0E32BF4FF0000E78
:1042400023FA0CF310EB030041EB0451B4EB115FC4
:10425000D0D0A1EB045101F5801149085FEA30008C
:1042600001EB04510ED350F1000038BF12FA0EFEDC
:1042700008D1BDE81040C9E7401C38BF5FEA4202E0
:10428000CAD1C3E7BDE810404FEA410313F5001F50
:1042900038BF7047A1F1C04100F064B89EEA445FA6
:1042A00008D011EA5E0FBDE8104004BF01F00041E4
:1042B00000207047BDE8104070B500F005F800BF61
:1042C00064FBBE3E0000E0FF0EF1020E2EF0030E76
:1042D0005EF8046B364205D4012A43EB030515F55D
:1042E000001F12D8012841EB010C1CF5001F0CD84F
:1042F0000ED14FEAD17C15F5001F0CEB4C0C0CF1E4
:10430000020C08BF4CEBD37C04E04FF0080C01E03A
:104310004FEAD37C0CEB4C0526FA05F606F00706AF
:10432000B6F1040C06D20EEB860CBDE870404CF0E2
:10433000010C6047DFE80CF0090B02024FF000416E
:104340004FF00000A1F5002170BD1946104601286C
:1043500051EB010418BFD4F5001484BF002001F014
:10436000004170BD0808A0F500114FEA3101704707
:1043700010B591EA030F48BF83F000433FF504AF47
:10438000841A71EB030C07D212198CF0004C43EB2A
:104390000C03001B61EB0C01DFF8A4E14FEA1154A0
:1043A000A4EB135C1EEA430F18BF9EEA445F00F0C3
:1043B000B08023EA6E03524221EA0451C3EB6E033C
:1043C00038BF5B1EDCF1200E25D322FA0CFE10EB69
:1043D0000E0043FA0CFE41EB0E01CCF1200E03FA65
:1043E0000EFE10EB0E0051F10001CCF1200E29D48D
:1043F00012FA0EF201EB0451BDE8104058BF7047AD
:10440000401C1CBFB2F1004F704700280CBF491C74
:1044100020F00100704712EB020E43EB030218BFBD
:104420004FF0010E4EEA4202ACF1200CDCF11E0E00
:1044300054D943FA0CFE10EB0E0051F1FF31CCF1D0
:104440001E0ED5D50EF1010E12FA0EFE404141EBC3
:10445000010101EB445C5FEA5C5C10D910EBDE709B
:1044600001EB045138BFBEF1004FBDE8104018BF4A
:10447000704700280CBF491C20F00100704730D263
:104480004FEAD42C11F5001124F400641BD0B1FACA
:1044900081F20B3AA41AA41ED2F12003914030FA03
:1044A00003F31943904001EBCC71002C01EB045154
:1044B000BDE81040A8BF704701F1C0414FF00000B7
:1044C00001F000417047B0FA80F310FA03F100D117
:1044D00010BDE41A173C4805C90AE4E701EB045192
:1044E00010BD491001EB0451BDE810404FEA300007
:1044F00002E04FF0000170474A0008BF0042F8D0C8
:10450000B2F5001F28BF704701F000414FF00000D6
:1045100070479EEA445F07D011EA5E0FBDE8104085
:1045200004BF002100207047BDE8104070B5FFF7C0
:10453000CBFE00BF40DFF63E83F0004110467047DF
:104540000000E0FF43004FEAD30C4FEA3C0C43402D
:104550001FBF40070CF1605113F0FE4F70471CF075
:10456000006F03D100200CF0004170470CF00043B5
:1045700043EA507010B540EACC0000F00EF800BFDE
:10458000000000924FEA0001FFF7ECBE4FF000413F
:104590004FF00000A1F5002170470EF1020E2EF041
:1045A000030E5EF8044B244204D44FEA4102B2F1F8
:1045B0007F4F11D84FEA4003B3F17F4F0CD80ED193
:1045C0004FEAD07CB2F17F4F0CEB4C0C0CF1020C9B
:1045D00008BF4CEBD17C04E04FF0080C01E04FEA3F
:1045E000D17C0CEB4C0324FA03F404F00704B4F17F
:1045F000040C06D20EEB840CBDE810404CF0010C0C
:104600006047DFE80CF0070802024FF00040A0F519
:10461000800010BD0846420018BFD2F1807288BFEA
:1046200000F0004010BD4FF04070E1EE100A7047FE
:10463000FF2141EAD050C0057047FCF7F2B90000F5
:10464000000004040400000800000008000000004E
:104650000000000001020304060708090000000032
:1046600001020304184900081C49000820490008F9
:104670002449000830313233343536373839414235
:1046800043444546403058003031323334353637B4
:104690003839616263646566403078000400000860
:1046A00000000000000000020001000010000000F7
:1046B00002400000000000A00000000005400000D3
:1046C000000000C8000000000C4000000000409CFA
:1046D00000000000194000000020BCBE00000000E7
:1046E00034400000BFC91B8E00000004B54000002C
:1046F000504BCFD06607E2CF010000006C410000B4
:104700003E8251AADFEEA73401000000D94200002A
:10471000DCB5A0E23A301F97FFFFFFFFB445000071
:10472000FD25A0C8E9A3C14FFFFFFFFFFF3F000029
:104730000000008000000000FF3F0000000000803B
:10474000000000003F000000646563006964000031
:1047500072756E74696D650068656C7000000000AC
:104760006C6973740000000068657800766F696496
:104770002055736172745F53656E64537472696E11
:1047800067282055534152545F54797065446566DB
:10479000202A20705553415254782C20636861724E
:1047A000202A737472292000746573745F50574D0A
:1047B00028696E7420666C6167312C666C6F617459
:1047C00020616E676C65312C696E7420666C616760
:1047D000322C666C6F617420616E676C65322C6977
:1047E0006E7420666C6167332C666C6F6174206137
:1047F0006E676C65332C696E7420666C6167342C4F
:10480000666C6F617420616E676C6534290000000E
:10481000766F6964207365745F616E676C655F664F
:10482000756E28696E742074312C20696E74207442
:10483000322C20696E742074332C696E74207434A9
:104840002C696E742074352C696E742074362900BE
:10485000766F696420746573745F61726D5F6F63F6
:104860005F70776D28696E742069642C696E74209E
:104870007261746529000000766F6964207772693F
:1048800074655F6164647228753332206164647298
:104890002C7533322076616C29000000766F6964D4
:1048A0002054494D5F50574D28696E74206E756DC8
:1048B0002900000075333220726561645F616464B1
:1048C000722875333220616464722900766F6964DE
:1048D000207365745F41524D5F73746174655F74DA
:1048E00065737428696E7420666C616731202C6969
:1048F0006E7420782C696E7420666C6167322C6946
:104900006E7420792C696E7420666C6167332C6933
:104910006E74207A290000002331500023325000A9
:104920002333500023345000644900080000002065
:10493000E0020000D0010008D4490008E002002095
:10494000000800002C0200081C00000043000000CA
:10495000F8FFFFFF0C0000000E0000000F00000039
:104960002E0000009194401C451324F41344471B6F
:104970000858041A60041A4C041A68041A48041AE5
:10498000500413152F1408B4481408E5401B087888
:10499000081329261B089C0813DD281B086C201A05
:1049A000CD201AA8081A19081ACC181A79081A1052
:1049B000081B85314019082234142081381408114D
:1049C000321B08A5041ADD0C220802FF0101FF01B9
:0449D00036021F018B
:040000050800019559
:00000001FF
